:100000000C9434000C943E000C943E000C943E0082
:100010000C943E000C943E000C943E000C943E0068
:100020000C943E000C943E000C943E000C943E0058
:100030000C943E000C943E000C943E000C943E0048
:100040000C943E000C943E000C943E000C943E0038
:100050000C943E000C943E000C943E000C943E0028
:100060000C943E000C943E0011241FBECFEFD8E04C
:10007000DEBFCDBF0E9456000C947A000C940000A5
:1000800080E285B92FEF83ED90E3215080409040CE
:10009000E1F700C0000015B82FEF83ED90E3215089
:1000A00080409040E1F700C00000089599B196FBB0
:1000B000992790F931E020E283B181709111832773
:1000C000982F9170880F880F8BB925B94FEF53ED9A
:1000D00080E3415050408040E1F700C0000015B877
:1000E0004FEF53ED80E3415050408040E1F700C0B6
:0800F0000000E2CFF894FFCFFD
:00000001FF
